S00B00006461352E737265631F
S11300000C9434000C9451000C9451000C94510045
S11300100C9451000C9451000C9451000C94510018
S11300200C9451000C9451000C9451000C94510008
S11300300C9451000C9473000C9451000C945100D6
S11300400C9451000C9451000C9451000C945100E8
S11300500C9451000C9451000C9451000C945100D8
S11300600C9451000C94510011241FBECFEFD8E022
S1130070DEBFCDBF11E0A0E0B1E0EAE9F5E002C0E7
S113008005900D92A630B107D9F721E0A6E0B1E0C2
S113009001C01D92AA30B207E1F70E948A000C94B5
S11300A0CB020C9400001092C50087E68093C40034
S11300B088E18093C10086E08093C2000895909106
S11300C0C00095FFFCCF8093C6000895CF93DF93C3
S11300D0EC0103C00E945F00219688818111FACF50
S11300E0DF91CF9108951F920F920FB60F921124B2
S11300F08F939F93809108019091090101969093A9
S11301000901809308019F918F910F900FBE0F906A
S11301101F901895CF93DF93CDB7DEB764970FB6D2
S1130120F894DEBF0FBECDBF84B1826084B984B1C0
S1130130806284B90E9453007894E0E8F0E0808102
S1130140826A8083E1E8F0E080818B618083EFE65E
S1130150F0E080818E7F808387E893E1909387002D
S11301608093860080910001909101018831924032
S1130170E4F081E690E09093010180930001809186
S1130180000190910101909389008093880010925E
S11301900701109206018FEF91EE24E08150904008
S11301A02040E1F700C0000023C08091000190913D
S11301B001019093890080938800809106019091B9
S11301C00701029690930701809306018091000134
S11301D090910101059690930101809300018FEFA6
S11301E099E628E1815090402040E1F700C00000EA
S11301F091E090936F001092800085B1806285B980
S113020085E38A95F1F7000085B18F7D85B9109259
S113021085001092840081E48093810080E286BB93
S113022096BBB59BFECF109285001092840081E0AE
S11302308093810090E296BB86BB109209011092D4
S11302400801B59BFECF609186007091870080E025
S113025090E00E940A0220E030E048E654E40E9464
S113026060016B017C0180910601909107014AE0D5
S1130270BE01655F7F4F0E949602CE010B960E94DD
S1130280660082E091E00E946600C701B6010E9408
S1130290D201DC01CB014AE0BE016F5F7F4F0E94B7
S11302A09602CE0101960E94660084E091E00E94CD
S11302B066008FE39CE90197F1F700C000003DCF91
S11302C00E9474010C945C020E94550258F00E9432
S11302D04E0240F029F45F3F29F00C94450251117D
S11302E00C9490020C944B020E946D0268F39923C3
S11302F0B1F3552391F3951B550BBB27AA2762171E
S11303007307840738F09F5F5F4F220F331F441F2A
S1130310AA1FA9F335D00E2E3AF0E0E832D091505E
S11303205040E695001CCAF72BD0FE2F29D0660F4B
S1130330771F881FBB1F261737074807AB07B0E88E
S113034009F0BB0B802DBF01FF2793585F4F3AF094
S11303509E3F510578F00C9445020C9490025F3F47
S1130360E4F3983ED4F3869577956795B795F7951A
S11303709F5FC9F7880F911D9695879597F9089502
S1130380E1E0660F771F881FBB1F6217730784079E
S1130390BA0720F0621B730B840BBA0BEE1F88F7AD
S11303A0E09508950E94D9016894B1110C949002CB
S11303B008950E94750288F09F5798F0B92F9927E5
S11303C0B751B0F0E1F0660F771F881F991F1AF03C
S11303D0BA95C9F714C0B13091F00E948F02B1E010
S11303E008950C948F02672F782F8827B85F39F00F
S11303F0B93FCCF3869577956795B395D9F73EF4D5
S113040090958095709561957F4F8F4F9F4F08957C
S1130410E89409C097FB3EF490958095709561959A
S11304207F4F8F4F9F4F9923A9F0F92F96E9BB2750
S11304309395F695879577956795B795F111F8CFCC
S1130440FAF4BB0F11F460FF1BC06F5F7F4F8F4F37
S11304509F4F16C0882311F096E911C0772321F02D
S11304609EE8872F762F05C0662371F096E8862FC5
S113047070E060E02AF09A95660F771F881FDAF71C
S1130480880F9695879597F9089597F99F6780E85F
S113049070E060E008959FEF80EC089500240A94D2
S11304A01616170618060906089500240A9412164B
S11304B01306140605060895092E0394000C11F47E
S11304C0882352F0BB0F40F4BF2B11F460FF04C02B
S11304D06F5F7F4F8F4F9F4F089557FD9058440F84
S11304E0551F59F05F3F71F04795880F97FB991F8F
S11304F061F09F3F79F0879508951216130614064C
S1130500551FF2CF4695F1DF08C0161617061806D8
S1130510991FF1CF86957105610508940895E894B3
S1130520BB2766277727CB0197F90895BB274A3065
S113053031F4992322F4BDE2909581959F4F0C9458
S1130540A202BB27FB015527AA27880F991FAA1FC0
S1130550A41710F0A41B83955051B9F7A05DAA33DA
S113056008F0A95DA193009779F7B111B1931192A5
S1130570CB010C94BB02DC01FC01672F7191772342
S1130580E1F7329704C07C916D9370836291AE174A
S10D0590BF07C8F30895F894FFCFE5
S109059A61002C002E009C
S9030000FC
