:100000000C9434000C9451000C9451000C94510049
:100010000C9451000C9451000C9451000C9451001C
:100020000C9451000C9451000C9451000C9451000C
:100030000C9451000C9451000C9451000C945100FC
:100040000C9451000C9451000C9451000C945100EC
:100050000C9451000C94B7000C9451000C94510076
:100060000C9451000C94510011241FBECFEFD8E026
:10007000DEBFCDBF11E0A0E0B1E0ECE1F2E002C0F4
:1000800005900D92AC30B107D9F721E0ACE0B1E0BA
:1000900001C01D92AE30B207E1F70E9471000C94CE
:1000A0000C010C94000084B18C6284B985B1837D0D
:1000B00085B9089580E58CBD08958EBD0DB407FE09
:1000C000FDCF0895ECE7F0E0808180648083EAE76B
:1000D000F0E080818D6A8083EBE7F0E080818083AF
:1000E000089514BC84B5836284BD85B5876085BDE1
:1000F0008AB183608AB98AB180628AB981E08BB99A
:100100000E9462000E9453000E945A00EAE7F0E059
:100110008081806480832FE78AE196E021508040CF
:100120009040E1F700C00000789485B18B7F85B9DD
:10013000C0E01AC0EC2FF0E0EE5FFE4F80810E941D
:100140005D0084EF0E945D0085B1846085B985B152
:100150008B7F85B92FEF83ED90E321508040904055
:10016000E1F700C00000CF5FCA3020F3DECF1F925E
:100170000F920FB60F9211242F933F938F939F935B
:10018000209178003091790080910C0190910D01BF
:10019000820F931F90930D0180930C0180910001B9
:1001A000909101010197909301018093000180914A
:1001B000000190910101019731F580910C0190911E
:1001C0000D01929582958F7089279F708927909352
:1001D0000D0180930C0180910C0190910D0188BD5F
:1001E00010920D0110920C0184E090E090930101B7
:1001F000809300012FE78AE196E0215080409040F3
:10020000E1F700C000009F918F913F912F910F90D7
:0C0210000FBE0F901F901895F894FFCFC0
:0C021C000400C0F9A4B0999282F8809010
:00000001FF
