:100000000C9434000C9446000C9446000C9446006A
:100010000C9446000C9446000C9446000C9460002E
:100020000C9446000C9446000C9446000C94460038
:100030000C9446000C9448000C9446000C94460026
:100040000C9446000C9446000C9446000C94460018
:100050000C9446000C9446000C9446000C94460008
:100060000C9446000C94460011241FBECFEFD8E03C
:10007000DEBFCDBF21E0A0E0B1E001C01D92A43001
:10008000B207E1F70E9490000C94EA000C94000083
:100090001F920F920FB60F9211248F939F9395B1D9
:1000A00088E0892785B986E093EC9093850080935A
:1000B00084009F918F910F900FBE0F901F90189505
:1000C0001F920F920FB60F9211248F939F938091DE
:1000D0000201909103010196909303018093020124
:1000E0008091020190910301889719F486EA809328
:1000F000B2008091020190910301899751F495B16A
:1001000084E0892785B910920301109202011092B0
:10011000B2009F918F910F900FBE0F901F90189576
:1001200084B1826084B984B1886084B984B1846008
:1001300084B916BC14BC85B5856085BD10920101DB
:100140001092000186E093EC9093850080938400E8
:1001500010928000E1E8F0E0808185608083EFE626
:10016000F0E08081816080831092B2008FEF8093F5
:10017000B300E0EBF0E0808182608083E1EBF0E0AF
:10018000808187608083E0E7F0E080818260808307
:1001900010920301109202017894A89BFECF16BC26
:1001A00081E085BB809100019091010101969093BF
:1001B0000101809300018091000190910101449719
:1001C00061F795B182E0892785B9109201011092FB
:0801D0000001E3CFF894FFCF1A
:00000001FF
